:020000040800F2
:1000000060440020C1010008370F0008C502000845
:10001000350F00080B040008DD1100080000000087
:10002000000000000000000000000000D3010008F4
:100030000D0400080000000013020008390F00083A
:10004000DB010008DB010008DB010008DB01000820
:10005000DB010008DB010008DB010008DB01000810
:10006000DB010008DB010008DB010008DB01000800
:10007000DB010008DB010008DB010008DB010008F0
:10008000DB010008DB010008DB010008DB010008E0
:10009000DB010008DB010008DB010008DB010008D0
:1000A000DB010008DB010008DB010008DB010008C0
:1000B000DB010008DB010008DB010008DB010008B0
:1000C000DB010008DB010008DB010008DB010008A0
:1000D000DB010008DB010008DB010008DB01000890
:1000E000DB010008DB010008DB010008DB01000880
:1000F000DB010008DB010008DB010008DB01000870
:10010000DB010008DB010008DB010008DB0100085F
:10011000DB010008DB010008DB010008DB0100084F
:10012000DB010008DB010008DB010008DB0100083F
:10013000DB010008DB010008DB010008DB0100082F
:10014000DB010008DB010008DB010008DB0100081F
:10015000DB010008DB010008DB010008DB0100080F
:10016000DB010008DB010008DB010008DB010008FF
:10017000DB010008DB010008DB01000800000000D3
:10018000DB010008DB010008DB010008DB010008DF
:10019000DB010008DB010008DB010008DB010008CF
:1001A000DB010008DB010008DB010008DFF80CD0F0
:1001B00000F014F9004800470104000860440020E2
:1001C0000648804706480047FEE7FEE7FEE7FEE7F1
:1001D000FEE7FEE7FEE7FEE7FEE7FEE74910000860
:1001E000AD010008EFF3108072B6704780F31088FD
:1001F0007047424A1368012B04D04FF0010313608B
:100200003F4A10603F4A11603F484FF08051016003
:100210007047EFF3108272B63848016851B34FF05F
:10022000000101603648016891B1EFF309811EF0C9
:10023000100F08BF21ED108B21E9F00F4FF00004E3
:100240001EF0100F08BF012441F8044D0068016042
:100250002C490968096808C9B1E8F00F002B18BFDC
:10026000B1EC108B81F309884EF0100E002B18BFF3
:100270002EF0100E82F310884EF0040E70472149C4
:100280000860EFF3148222F0040282F314881C4900
:100290004FF00000086019494FF0010008601B484A
:1002A0001B49D0F8002041EA0201016016484FF0D6
:1002B0008051016017480068006880F3088861B6C3
:1002C00062B670471EF0040F0CBFEFF30880EFF327
:1002D000098020E9F00F40F804ED40F804ED1EF02D
:1002E000040F0CBF80F3088880F3098800B501F083
:1002F00075FA5DF804EB4EF0040E7047BC00002068
:10030000B4000020B800002004ED00E020ED00E083
:100310000000FFFF08ED00E02DE9F05F054600203A
:1003200092469B4688460646814640241BE0284666
:1003300041464746224600F041F853465A46C01A05
:10034000914110D311461846224600F028F82D1A84
:1003500067EB01084F4622460120002100F01FF8FC
:1003600017EB00094E41201EA4F10104DFDC4846D2
:1003700031462A464346BDE8F09FD2B201E000F87C
:10038000012B491EFBD270470022F6E710B5134639
:100390000A4604461946FFF7F0FF204610BD202A02
:1003A00004DB203A00FA02F1002070479140C2F1CC
:1003B000200320FA03F3194390407047202A04DBFE
:1003C000203A21FA02F00021704721FA02F3D040CE
:1003D000C2F120029140084319467047064C074D70
:1003E00006E0E06840F0010394E807009847103405
:1003F000AC42F6D3FFF7DEFEA82D0008C82D00089A
:1004000010B502F0CBFB002010BDFEE7704772B6BE
:10041000FEE700002DE9F84FDFF8F8A100220124E3
:100420000AF1040B03254FF00F090BF1040E00BF76
:100430000B6804FA02F63340B34270D10F7907F02B
:100440000307012F01D0022F16D187684FEA420817
:1004500005FA08FC27EA0C07D1F80CC00CFA08FCD6
:100460004CEA070CC0F808C04768B7430E79C6F3DA
:10047000001696403E4346600E79F643B6070AD012
:10048000C7684FEA420C05FA0CF6B7438E6806FAC5
:100490000CF63E43C6600E7906F00306022E10D11C
:1004A000D60800EB8608D8F8206057074FEAD76CCB
:1004B00009FA0CF7BE430F6907FA0CF73743C8F87F
:1004C000207006684FEA420C05FA0CF7BE430F791C
:1004D00007F0030707FA0CF7374307604E6816F476
:1004E000403F1CD04C4E376847F480473760366831
:1004F00022F0030706F480460096484E07EB060CF0
:10050000DCF8086897073F0F09FA07F826EA08069B
:10051000DFF80C81404503D14FF0000841E072E064
:10052000DFF80081404502D14FF0010839E0DFF8E3
:10053000F880404502D14FF0020832E0DFF8EC804D
:10054000404502D14FF003082BE0DFF8E48040453E
:1005500002D14FF0040824E0DFF8D880404502D1F2
:100560004FF005081DE0DFF8D080404502D14FF084
:10057000060816E0DFF8C480404502D14FF00708B6
:100580000FE0DFF8BC80404502D14FF0080808E0DA
:10059000DFF8B080404502D14FF0090801E04FF08C
:1005A0000A0808FA07F848EA0608CCF80888DAF8D2
:1005B00000605746D1F804C09E435FEACC3C00D5AA
:1005C0001E433E60DBF800605F46D1F804C09E43E6
:1005D0005FEA8C3C00D51E433E60DEF80060774643
:1005E000D1F804C09E435FEACC2C00D51E433E6088
:1005F000084F0C373E68D1F804C09E435FEA8C2C4C
:1006000000D51E433E60521C102AFFF411AFBDE816
:10061000F88F0000003C01404438024000300140A7
:10062000000002400004024000080240000C0240AA
:10063000001002400014024000180240001C02405A
:1006400000200240002402400AB181617047090481
:10065000FBE700000148806870470000140000209C
:100660000B4810B5016841F400710160016841F464
:1006700080610160016841F480710160032000F035
:1006800061F8002000F006F800F024F8002010BD0A
:10069000003C024070B50D4D04464FF47A71287845
:1006A000B1FBF0F00A490968B1FBF0F000F004FB7F
:1006B00048B9102C07D200222146501E00F022F823
:1006C00000206C6070BD012070BD0000140000208F
:1006D000100000200A4808B5016841F4804101601B
:1006E000006800F4804000900548001F016841F058
:1006F00080510160006800F08050009008BD00004B
:1007000044380240F0B40E4B1B680C46C3F302237E
:10071000C3F10705042D00D90425191D072901D2AD
:10072000002300E0DB1E012606FA05F1491E2140E8
:1007300099409E40761E16403143F0BC00F04FBDFC
:100740000CED00E0064900F0070208684FF6FF03D1
:10075000184040EA0220034A104308607047000036
:100760000CED00E00000FA052DE9F0470E4605000B
:1007700065D0DFF81481D8F80000F7B200F00F0060
:10078000B04207D288F80070D8F8000000F00F00DF
:10079000B04254D128683D4C810712D5400703D59B
:1007A000206840F4E05020602878000703D52068D6
:1007B00040F4604020602068A96820F0F000084301
:1007C00020602878C0072DD0304968680839012892
:1007D00012D0022813D0032811D0096889070029F4
:1007E0002DDA216821F0030101432160FFF732FF78
:1007F000814641F2883A0EE009688903EFE709680B
:100800008901ECE7FFF726FFA0EB0901514502D96A
:100810000320BDE8F0872068696800F00C00B0EBA9
:10082000810FEFD1D8F80010404601F00F01B1421E
:1008300007D90770006800F00F00B04201D0012016
:10084000E7E72878400705D52068E96820F4E050FC
:10085000084320602878000706D52068296920F41D
:10086000604040EAC100206000F03EF82168084A7C
:10087000C1F30311515CC84006490860064800688E
:10088000FFF708FF0020C4E7003C024008380240A0
:10089000582C0008100000201800002001480068B3
:1008A00070470000100000200448054900680968EE
:1008B000044AC1F38221515CC840704710000020F7
:1008C00008380240682C0008044805490068096897
:1008D000044AC1F34231515CC84070471000002007
:1008E00008380240682C0008154810B5006810F060
:1008F0000C02144813D01449042A0FD0082A0ED130
:100900000F4C241F2268236802F03F025B0207D5C8
:100910002068C0F38810A0FB010106E0084610BD66
:100920002168C1F38811A1FB00010023FFF7F4FC4B
:100930002168C1F30141491C4900B0FBF1F010BD31
:10094000083802400024F40040787D012DE9F84F7A
:1009500004006ED02078DFF84C93C007A9F104059D
:100960004AD009F104000168C1F38101012908D0CE
:100970000068C0F3810002280AD1D9F800004002C3
:1009800006D52868800337D560680028E1D033E0B9
:100990006068B0F5803F10D0B0F5A02F286810D067
:1009A00020F480302860286820F480202860606867
:1009B000A8B1FFF74FFE06460DE0286840F48030EE
:1009C000F4E740F480202860F7E700BFFFF742FE1D
:1009D000801B642873D828688003F7D50CE0FFF7E4
:1009E00039FE064605E000BFFFF734FE801B642891
:1009F000F0D828688003F7D42078DFF8AC8280072D
:100A00004FF0000A3ED5A748001D016811F00C0FF9
:100A100008D00068C0F3810002280BD1D9F800008B
:100A2000400207D42868800716D5E068012800D165
:100A300012E033E1E068B8B10120C8F80000FFF728
:100A400009FE064605E000BFFFF704FE801B0228F2
:100A5000C0D828688007F7D52868216920F0F800F9
:100A600040EAC10028600DE0C8F800A0FFF7F2FDE1
:100A7000064604E0FFF7EEFD801B02281FD8286819
:100A80008007F7D42078000722D5864F8748616910
:100A9000703771B101210160FFF7DCFD064604E00B
:100AA000FFF7D8FD801B022809D838688007F7D5E2
:100AB0000EE0C0F800A0FFF7CDFD064605E082E09D
:100AC000FFF7C8FD801B02287DD838688007F7D45F
:100AD0002078400768D5DFF8CCB100270BF13C0B3C
:100AE000DBF80000C0000BD4DBF8001041F08051AF
:100AF000CBF80010DBF80000012700F080500090D8
:100B00006B4E3068C00510D4306840F4807030609F
:100B1000FFF7A0FD009005E0FFF79CFD0099401A4B
:100B2000022850D83068C005F6D55E4EA0686C36F5
:100B300001280FD00528306810D020F00100306067
:100B4000306820F004003060A068B8B1FFF782FD83
:100B500000900FE0306840F00100F4E740F004003E
:100B60003060F7E7FFF776FD0099411A41F28830CF
:100B7000814266D830688007F4D50EE0FFF76AFD41
:100B8000009007E0FFF766FD0099411A41F28830B6
:100B9000814256D830688007F4D42FB1DBF80010BA
:100BA00021F08051CBF80010A069C8B33D49091D60
:100BB0000968C1F3810102294AD00228504607D0B2
:100BC000C8F8600000E03CE0FFF744FD04463BE06D
:100BD0004746C8F86000FFF73DFD064605E000BF48
:100BE000FFF738FD801B02282BD828688001F7D436
:100BF000D4E907010843A16A2E4A490802EB0141E2
:100C0000626A41EA8211084394F82C1040EA0161BB
:100C1000C9F8001001203866FFF71CFD044606E005
:100C20003EE000BFFFF716FD001B022809D8286828
:100C30008001F7D534E000BFFFF70CFD001B022850
:100C400002D90320BDE8F88F28688001F4D427E09A
:100C50000128F7D0D9F80000E26900F48001914240
:100C60001CD1226A00F03F01914217D147F6C071B2
:100C7000626A0140B1EB821F10D1A26A4FF0FF33CC
:100C800000F4403103EB5202B1EB024F06D194F86D
:100C90002C1000F07060B0EB016F01D00120D1E7A3
:100CA0000020CFE70438024000004742800E474250
:100CB000007000400000FFFF10B5401EB0F1807FC3
:100CC00001D3012010BD4FF0E02460610F216017B7
:100CD00000F085FA0020A06107202061002010BDEF
:100CE00070B5040004D094F83D00002510B106E072
:100CF000012070BD84F83C50204600F023F82420E9
:100D000084F83D002068C16821F40051C16020468C
:100D100000F0A2F92068016921F490410161206886
:100D2000416921F02A0141612068C16841F4005104
:100D3000C1602564202084F83D0084F83E00002036
:100D400070BD000010B586B0044614216846FFF758
:100D50001BFB14492068884221D1134800210268F6
:100D600042F010020260006800F0100005900E488A
:100D70001438026842F001020260006800F00100CD
:100D800005904FF4C06000900220CDE901010320DE
:100D900003900720049069460448FFF73BFB06B028
:100DA00010BD000000100140443802400000024025
:100DB0002DE9F843044690F83D001F4616460D46BF
:100DC00020284CD1C5B1BEB194F83C00012846D0D2
:100DD000012084F83C004FF00008C4F84080212036
:100DE00084F83D00FFF736FCA6848146E684A068BF
:100DF000B0F5805F03D004E00120BDE8F8832069EE
:100E000028B12E465FF0000584F83C800EE00026F5
:100E1000FAE78021204600F0A5F9A0B9AEB116F896
:100E2000010B21684860E08C401EE084E08C4B465A
:100E30004FF0000200970028EBD14FF04001204610
:100E400000F090F930B10320D7E735F8020BC0F37A
:100E50000800E6E7202084F83D000020CDE70220CE
:100E6000CBE70000F0B587B014216846FFF78CFA95
:100E70001E480024016841F004010160016801F08E
:100E800004010591016841F001010160016801F070
:100E900001010591016841F0800101600068144F73
:100EA00000F080004FF4E0560590012231463846AC
:100EB000FFF7CAFB4FF40050CDE9000469460D4826
:100EC0000294FFF7A7FA0125CDE9005469460A48C4
:100ED0000294FFF79FFA0096CDE90154694638461F
:100EE0000394FFF797FA07B0F0BD000030380240D6
:100EF000001C024000080240000002400C4810B5EF
:100F00000A4901604FF4E1314160002181600C2207
:100F1000C160C0E904128161C161FFF7E1FE0028F0
:100F200003D0BDE81040FFF772BA10BD00100140B9
:100F3000C0000020FEE7FEE710B500F075FD01F0EF
:100F4000E1FBBDE8104000F07DBD000010B592B09F
:100F500030216846FFF718FA14210CA8FFF714FA9D
:100F600018480024016841F080510160006800F0D9
:100F7000805011901448016821F4404141F48041AF
:100F800001600068069400F4404011900220009037
:100F900001200390102004906846FFF7D7FC08B1A9
:100FA00072B6FEE70F20CDE90C040E940F940021D9
:100FB0000CA81094FFF7D8FB002801D072B6FEE70A
:100FC00012B010BD403802400070004070B5194C9E
:100FD0002068194A10F00C01184804D0184D042953
:100FE00003D0082903D002601BE0056019E0114915
:100FF000091F0B68C3F380560B6803F03F0316B15B
:10100000B5FBF3F201E0B2FBF3F20B680968C3F33E
:1010100088135A43C1F30141491C4900B2FBF1F165
:1010200001602168074AC1F30311515C0268CA409C
:10103000026070BD083802400024F4001000002057
:1010400040787D01582C00080248016841F4700185
:101050000160704788ED00E070B5044600680169E2
:10106000E26821F44051114301612169A068E269FD
:1010700008436169114308432168CA6849F20C6357
:101080009A430243CA6020684169A26921F4407111
:101090001143416131492068884202D03049884279
:1010A00002D1FFF711FC01E0FFF7FEFBE26900232C
:1010B000192164253226B2F5004F626828D0A0FBC2
:1010C0000101930F9200FFF727F90146B0FBF5F0FD
:1010D0006FF01802504301EB800006EB0010B0FBEC
:1010E000F5F000F0F002B1FBF5F002EB0012B1FBFD
:1010F000F5F06FF01803584301EB800006EB001089
:10110000B0FBF5F000F00F0021681044886070BD5E
:10111000A0FB010192185B41FFF7FEF80146B0FB0E
:10112000F5F00201B1FBF5F06FF01803584301EB45
:10113000800006EBC000B0FBF5F000F0F80002EB19
:101140004002B1FBF5F0584301EB800006EBC00014
:10115000B0FBF5F000F00700D6E7000000100140FA
:10116000001401402DE9F041984617460E4604460A
:10117000069D27E0681C25D02DB1FFF76BFAA0EB88
:101180000800A8421ED920680C3050E8001F21F446
:10119000D07140E80012002AF5D12068143050E8E0
:1011A000001F21F0010140E80012002AF5D12020A3
:1011B00084F83D0084F83E00002084F83C000320C1
:1011C000BDE8F0812068006836EA000004D0002005
:1011D000B842CFD00020F3E70120F9E7FEE7090786
:1011E000090E002804DB00F1E02080F800147047AD
:1011F00000F00F0000F1E02080F8141D704700009F
:10120000002807D00E4910F0FF0F04D051FA80F0EB
:101210000078401C704710F47F4F04D0C0F30720C3
:10122000085C0930704710F47F0F04D0C0F307400A
:10123000085C1130704701EB10600078193070477E
:10124000702C000802E008C8121F08C1002AFAD159
:1012500070477047002001E001C1121F002AFBD136
:10126000704700002DE9FC411F460446DDE90831C6
:10127000DDE90A65143040600060C4E90827C4E96C
:101280000A310A46232118461C3400F0DBFCD4E95D
:1012900003014218D4E90101104B121F00F0A6FB14
:1012A00044F81A0B002004F801690D4A04F8036B96
:1012B000E4E8020544F8105901C404F83C0B01C4E9
:1012C00044F87409009023460190194604F1440043
:1012D00001F0ACFA0020BDE8FC81000069240008A0
:1012E0007726000810B5029C24F001044472C0E97E
:1012F00007120021C0E9093114304060006010BDC0
:10130000143000F01DBC70B50546FEF76BFF296F69
:10131000044609B1284688472046BDE87040FEF7DC
:1013200065BF00002DE9FC41FFF79AF9FFF70EFEBB
:10133000FFF798FDFFF7E2FD19A000F0C3FB00F0F6
:10134000DDFE00211CA000F0A0FC1E4CE06010B1EE
:101350001DA000F0B7FB14250320CDE900054FF4D4
:101360000076334600221C491CA001F001F84FF022
:10137000FF37606088B101F047F90420CDE900052E
:1013800033460022174918A000F0F2FFA06020B1F8
:1013900001F03AF90020BDE8FC813846FBE7000087
:1013A00052542D546872656164CAB5D1E92DBBA54C
:1013B000B3E2C1BF00000000746573745F6D75789F
:1013C0000000000000000020B4B4BDA8B3C9B9A655
:1013D000A3A10A0A00000000851500087265636574
:1013E00069766500C92B000873656E640000000013
:1013F00010B500F011F9BDE81040FFF793BF0000F1
:1014000030B5134943680A68134402F1080498424E
:101410000DD05D885DB94D68AB4208D08D689D42A6
:1014200000D188605D6845605B68851A1D518368DE
:10143000134483420BD05D88002D08D18D6885420E
:1014400000D18B60416859604068991A015130BDE4
:10145000280000202DE9F04F85B09946DDE90EA562
:10146000109CAB46630602D5DFF814C103E0DFF839
:1014700010C1ACF1110CE30601D524F00104E3071F
:1014800001D0302300E0202300260493A3070BD5CE
:10149000002A02DA2D26524206E0630701D52B26E8
:1014A00002E0230700D520260023EE4622B9302291
:1014B0008DF8002001230CE0B9F10A0F14D002F0DE
:1014C0000F0812091CF808800EF803805B1C002A24
:1014D000F2D1AB4200DD1D46AAEB050214F0110F5C
:1014E0004FF0200708D015E00A27B2FBF7F807FBFA
:1014F0001828B2FBF7F2E5E73EB1002A05DD521EDF
:1015000003E0884200D20770401CB2F1000CA2F147
:101510000102F6DC26B1884200D20670401C521E41
:10152000E40605D508E0884201D2049C0470401C02
:10153000141EA2F10102F6DC30242E466D1E9E42DE
:101540000ADD884200D20470401CF6E7884201D2CE
:10155000E55C0570401C00E074461D1EA3F101030C
:1015600007DDBBF1000FF1D103E0884200D2077024
:10157000401C131EA2F10102F7DC05B0BDE8F08F9C
:10158000812D00080C4D4FF0FF362C464FF47A7732
:101590003146E06800F0E0FB28786978884201D1A4
:1015A00006A000E008A000F08DFAE06800F082FBE1
:1015B000384600F001FFEBE700000020537563633D
:1015C00065737366756C0A004661696C0A000000F9
:1015D0001CB514210A20CDE900014FF480630022DC
:1015E000034904A000F0C4FEBDE81C4001F00CB8A3
:1015F000F11300086D61696E0000000070B5044CC5
:10160000044D02E020688047241DAC42FAD370BD2F
:10161000982D0008A02D000870B5044C044D02E080
:1016200020688047241DAC42FAD370BDA02D00086D
:10163000A42D000810B5FEF7D5FD044A5188491CB9
:101640005180BDE81040FEF7D1BD000090000020A1
:1016500010B5FEF7C7FD0B4C6188491E09B26180C9
:1016600000290ADC00216180FEF7C0FD60680028C7
:1016700007D0BDE8104000F05BBCBDE81040FEF7AD
:10168000B5BD10BD9000002070B5002833D01A4DB4
:10169000296888422FD3696888422CD2A0F10C04B3
:1016A0004FF0FF31154800F0F1FC60884FF4F5561B
:1016B00010B12088B04208D011A000F003FA2388AE
:1016C0006288214615A000F0FDF900206080268088
:1016D000A868844200D2AC6029686068611A401A28
:1016E0002969081A28612046FFF78AFEBDE8704084
:1016F000024800F0A7BC70BD28000020FC020020BA
:10170000746F206672656520612062616420646187
:10171000746120626C6F636B3A0A00006D656D3A0C
:10172000203078253038782C207573656420666CFD
:1017300061673A2025642C206D6167696320636FBF
:1017400064653A203078253034780A0000487047C4
:101750001C040020004870471C40002010B5FEF714
:101760007FFFFFF7F3FBFFF731FCFFF797F84FF42C
:101770007A71B0FBF1F0FFF79FFAFFF73FFFFFF739
:10178000E9FF0446FFF7E2FF2146BDE8104000F004
:1017900029BD0000F8B506460D200F498DF8000060
:1017A000002481F83C40304600F000FD05460FE083
:1017B000305D0A2805D101231A4669460648FFF71D
:1017C000F7FA012331191A460348FFF7F1FA641CAE
:1017D000AC42EDD3F8BD00001C40002070B52F498D
:1017E0000546283009682C1D11B18847002853D0C0
:1017F0002BA0216C00F066F92DA0616A00F062F95F
:101800002FA0A16A00F05EF931A0E16A00F05AF958
:1018100033A0216B00F056F935A0616800F052F951
:1018200037A0A16800F04EF939A0E16800F04AF94C
:101830003BA0216900F046F93DA0616900F042F942
:101840003FA0A16900F03EF941A0E16900F03AF93A
:1018500043A0216A00F036F945A0616B00F032F92F
:1018600047A0A16B00F02EF949A0E16B00F02AF926
:101870002878400706D500F0A1FE014648A000F0F8
:1018800021F902E04EA000F01DF92878C00602D42C
:1018900052A000F017F9FEE770BD0000B000002074
:1018A0007073723A203078253038780A00000000D2
:1018B0007230303A203078253038780A0000000045
:1018C0007230313A203078253038780A0000000034
:1018D0007230323A203078253038780A0000000023
:1018E0007230333A203078253038780A0000000012
:1018F0007230343A203078253038780A0000000001
:101900007230353A203078253038780A00000000EF
:101910007230363A203078253038780A00000000DE
:101920007230373A203078253038780A00000000CD
:101930007230383A203078253038780A00000000BC
:101940007230393A203078253038780A00000000AB
:101950007231303A203078253038780A00000000A3
:101960007231313A203078253038780A0000000092
:101970007231323A203078253038780A0000000081
:10198000206C723A203078253038780A0000000048
:101990002070633A203078253038780A0000000043
:1019A00068617264206661756C74206F6E20746863
:1019B000726561643A2025730D0A0D0A000000006B
:1019C00068617264206661756C74206F6E20686156
:1019D0006E646C65720D0A0D0A00000046505520B9
:1019E000616374697665210D0A00000070B50446D4
:1019F000121D22F0070000220A4D443840F8225000
:101A0000521C112AFAD3416200218162C16200F1A5
:101A10003402016382E81A004FF0807303640160AE
:101A200070BD0000EFBEADDE10B5FEF7DBFB044A73
:101A30001178491C1170BDE81040FEF7D7BB0000BB
:101A40002400002010B5FEF7CDFB044A1178491E92
:101A50001170BDE81040FEF7C9BB00002400002053
:101A600010B50068143800F08BFD002010BD000098
:101A70002DE9F041064614460D46084600F0DAFD11
:101A800005F11407B4B1012C18D134680EE000BF81
:101A900095F8351094F82120A4F11400914204D255
:101AA0003946143000F033F802E02468B442EFD134
:101AB000B44203D13946304600F029F80020BDE891
:101AC000F08100000FB47F2110B503AB0448029AE7
:101AD00000F01AFF0248FFF75DFE10BC5DF814FB32
:101AE0007C0200200268516002680A600160486060
:101AF00070470268516002680A6001604860704780
:101B00000268516002680A6001604860704742687C
:101B1000116042684A60416008607047D0E9001275
:101B20004A60D0E900121160406000607047D0E95F
:101B300000124A60D0E900121160406000607047F6
:101B4000D0E900124A60D0E90012116040600060E4
:101B5000704700002DE9F047002807D0374CC01C23
:101B600020F00306E068864202D90020BDE8F08735
:101B70000C2E00D20C264FF0FF31314800F086FACF
:101B8000D4F808C02168E768ACEB0100BA1B4FE04D
:101B90000D186B88E3BB6B681B1A0C3BB34246D332
:101BA0006A6806F11803121A0C3A4FF001094FF453
:101BB000F55A9A422DD383190C33CA184FF00008F6
:101BC000A2F800A0A2F80280D5F80480C2E9018042
:101BD0006B60A5F8029050680C37B84202D001F152
:101BE00008028350206930440C30206162698242CF
:101BF00000D26061A5F800A0654512D1A0684288B6
:101C00007AB1626890420CD040680844A060F6E760
:101C10000DE0A5F8029068686A1A801A22691044DB
:101C2000E3E7074800F00EFA05F10C009EE768684C
:101C30008242ADD8024800F005FA96E7280000205D
:101C4000FC02002010B50346CCB2042A1AD3810747
:101C500018D1194644EA042343EA034306E008C1C5
:101C6000103A08C141F8083B41F8043C102AF6D26A
:101C700001E008C1121F042AFBD20B4602E000BF9C
:101C800003F8014B521EFBD210BD10B50C460146A5
:101C9000032000F0BFF800280BD000F1140181618F
:101CA0004161012181830021FF2201628277C17796
:101CB000447210BD70B5044600F080FC0546FEF786
:101CC00091FA0646206AA84207D04FF0FF3430460A
:101CD0002C63FEF78BFA204670BDE17F491E11F0A0
:101CE000FF01E1772ED1A17F90F83520914204D0F9
:101CF00004F11E02022100F000FB606904F11401EE
:101D00006FF00205884212D01438206290F8350036
:101D1000A077E07FFF281AD2401CE0770846FFF743
:101D20009FFE3046FEF762FA00F002F90DE0A08B4C
:101D30004FF6FF7188420AD2401CA0830020206227
:101D4000FF20A0773046FEF751FA002070BD3046E4
:101D5000FEF74CFA284670BD2DE9F341054600F028
:101D60002DFC0446FEF73EFA0646002020632B6A4F
:101D7000C71EA34205D1E87FFF280BD2401CE8779D
:101D80003AE0A88B60B1401EA8832C6294F835001D
:101D9000A877F0E73046FEF729FA3846BDE8FC811F
:101DA000019870B394F8350093F83510884205D245
:101DB00004F135020221184600F09FFA6A7A2146A2
:101DC00005F11400FFF754FE0198002809DD04F125
:101DD000440001AA0021054600F0F0FC284600F06E
:101DE00039FD3046FEF702FA00F0A2F8206B002819
:101DF000D4D1FEF7F7F906463046FEF7F7F9002092
:101E0000CCE7FFE76FF0010530462563FEF7EEF9FA
:101E10002846C3E72DE9F0410F46064600F046F894
:101E20000546C068FFF796FE040019D00021EA6855
:101E3000FFF708FF2672002060720822394620460C
:101E400000F0BCF9FEF7CEF9064604F10C01281D9E
:101E5000FFF748FE3046FEF7C9F92046BDE8F0819D
:101E60000020FBE770B5044600202072FEF7BAF9A7
:101E7000054604F10C00FFF751FE2846FEF7B6F9BF
:101E80002046BDE87040FFF7FFBB70B50446002058
:101E90002072FEF7A7F9054604F10C00FFF73EFE9D
:101EA0002846BDE87040FEF7A1B90000074A0021AE
:101EB00002EB01131B78834202D102EB0110704741
:101EC000491C0529F4DB0020704700004000002079
:101ED0002DE9F041044616460D460846FFF7E6FF99
:101EE0000746FFF7A7FB381D796800E009688142C3
:101EF000FCD1FFF7ADFB45F080002072082231468F
:101F0000204600F05BF9FEF76DF9054604F10C017F
:101F1000381DFFF7E7FD2846BDE8F041FEF766B93A
:101F2000007A000601D501207047002070470000AC
:101F300070B5FEF757F9114C05466088B0B9A06836
:101F4000FFF75EF90E49401E626851F830101439EF
:101F500091420BD020700B486160007801F11C01A8
:101F6000002802F11C0006D0FEF743F92846BDE820
:101F70007040FEF73BB9FEF73CF9F7E79000002010
:101F80001C0300202400002010B50446FEF72AF9A7
:101F9000024694F834000E4920F00F00401C84F8EB
:101FA000340094F8350001EBC00104F114004B68D3
:101FB00018604B68A361486006486161A16B836843
:101FC00019438160BDE810401046FEF70FB90000CC
:101FD0001C0300209000002010B50446FEF702F913
:101FE00004F11401D1E900235360D1E900231A6000
:101FF000A161616194F83520074951F8323001EB55
:10200000C2018B4204D10549A36B8A689A438A6056
:10201000BDE81040FEF7EAB81C0300209000002045
:102020002DE9F04116460A461F4605460221FFF7F4
:102030004FFF05F11404AC616C61AE836F72002038
:10204000BDE8F08170B50446FEF7CCF8054661693D
:1020500004F11400814207D0FFF702FD2846FEF785
:10206000C5F8FFF765FF09E0A08B4FF6FF718842C6
:1020700006D2401CA0832846FEF7B8F8002070BDA9
:102080002846FEF7B3F86FF0020070BD73B5054641
:10209000FEF7A8F80646A88B28B1401EA883304654
:1020A000FEF7A4F821E0019808B300F087FA04468F
:1020B000002020636A7A214605F11400FFF7D8FC5E
:1020C0000198002809DD04F1440001AA0021054619
:1020D00000F074FB284600F0BDFB3046FEF786F8A2
:1020E000FFF726FF206B002800D100207CBD304682
:1020F000FEF77CF86FF001007CBD000008B509A078
:10210000FFF7E0FC0AA0FFF7DDFC12A0009005231A
:102110000122032112A0FFF7D5FCBDE8084018A05A
:10212000FFF7D0BC0A205C207C202F0A00000000B2
:102130002D205254202D20202020205468726561CB
:1021400064204F7065726174696E6720537973748F
:10215000656D0A004175672032322032303233001B
:10216000202F207C205C202020202025642E256428
:102170002E2564206275696C642025730A000000B6
:102180002032303036202D203230323020436F70F4
:102190007972696768742062792072742D7468722C
:1021A000656164207465616D0A000000014600E00D
:1021B000491C0A78002AFBD1081A704710B5002A7A
:1021C00007D0034611F8014B03F8014B2CB1521E06
:1021D000F8D110BD03F8011B00E00021521EF9D117
:1021E00010BD00000A46C11C10B522F0030321F007
:1021F0000301182B20D9A3F118048C421CD3114CD5
:10220000581A18382160E0604FF4F5520A80002314
:102210000C30C1E901034B804B68194461600A80AE
:1022200001224A8048608860002307A10848FFF720
:10223000F7FE2068A06010BD0146BDE8104005A073
:10224000FFF740BC280000206865617000000000B6
:10225000FC0200206D656D20696E69742C2065722A
:10226000726F7220626567696E2061646472657363
:102270007320307825782C20616E6420656E642090
:102280006164647265737320307825780A000000F9
:1022900010B50A4900230A4C4B80184604EBC002D3
:1022A000401C526012602028F8DB1F200870034891
:1022B0004B600C308B604060006010BD90000020CF
:1022C0001C03002010B5074CA068FEF799FF0649D3
:1022D000401E51F8300014386060BDE810401C30DA
:1022E000FDF7CDBF900000201C0300200148406096
:1022F00000607047A800002070472DE9F0411646A5
:10230000044621B3012926D0022911D1FDF76AFF25
:10231000074694F83400012500F00F0001280AD088
:10232000307884F835008540A5633846FDF75EFFB8
:102330000020BDE8F0812046FFF74EFE307884F89B
:10234000350085402046A563FFF71EFEEDE7BDE89A
:10235000F04100F059B9FFF7E3FD0128204603D012
:10236000BDE8F04100F02AB8BDE8F04100F04CB8FB
:102370002DE9FF478946DDE90C76824601461D4678
:1023800090460120FFF746FD041E0DD02846FFF7BA
:10239000E1FB60B103968DE8A10043464A465146F1
:1023A0002046FEF75FFF204604B0BDE8F0872046D8
:1023B000FFF758FD0020F7E700F006B970B50446B6
:1023C00090F8340000F00F01042919D0000702D062
:1023D0002046FFF701FE2046FEF795FF04F144007A
:1023E00000F010FAFDF7FEFE0546042084F83400E4
:1023F00004F114010348FFF77CFB2846FDF7F6FEC5
:10240000002070BD9C00002070B5044690F8340098
:1024100000F00F0104291ED0000702D02046FFF76C
:10242000DBFD2046FEF76FFF04F1440000F0EAF9FF
:10243000042084F834002046FFF772FD01280CD0F8
:10244000FDF7D0FE054604F114010648FFF751FBE5
:102450002846FDF7CBFE002070BD2046FFF715FD96
:10246000F9E700009C00002070B514480468FDF7EF
:10247000B9FE05462046FEF746FF2046FFF7ACFDB5
:10248000042084F8340004F1440000F0BBF9204635
:10249000FFF746FD01280CD004F114010848FFF7AE
:1024A00028FB00BFFFF744FD2846BDE87040FDF75C
:1024B0009DBE2046FFF7E9FCF4E7000094000020F1
:1024C0009C00002000F002F8FCE700002DE97040BD
:1024D000FDF788FE05460F480168814214D0016867
:1024E000A1F11404D1E900024260D1E900021060B8
:1024F000496009604869FFF7C7F82046FFF7B2FC5A
:102500002846FDF773FEE3E72846BDE87040FDF777
:102510006DBE00009C0000201FB5202308481F222C
:10252000D9008DE80F000023064A07A1783800F093
:102530000FF804B00248BDE81040783800F064B8E5
:102540007C010020C52400087469646C65000000EB
:102550002DE9FF5F92460EAA0C4692E8E0010A467A
:10256000994683460121FFF7B3FC8DE8E0014B4615
:10257000524621465846FEF775FE04B0BDE8F09F6E
:1025800070B5044690F8340000F00F00022802D025
:102590004FF0FF3070BDFDF725FE054604F1140035
:1025A000FFF7C5FA04F1440000F096F92846FDF75C
:1025B0001DFE2046FFF7E8FC002070BD01480068C2
:1025C0007047000094000020F1B5FDF70BFE0546B2
:1025D0000C480468204600F02DF804F144006A46D7
:1025E0000021064600F0EAF8304600F033F92846AC
:1025F000FDF7FCFDFFF79CFC206B801C00D12063E5
:102600000020F8BD9400002010B590F8361001228B
:1026100080F835108A400221826380F83410FFF779
:10262000AFFF0348006808B1FFF782FC002010BD2F
:102630009400002070B5044690F8340000F00F00BC
:10264000012802D04FF0FF3070BDFDF7CBFD0546ED
:102650002046FFF7C1FC94F8340020F00F00801CE6
:1026600084F8340004F1440000F036F92846FDF700
:10267000BDFD002070BD10B504466FF00100206361
:1026800004F11400FFF753FA2046FFF77DFCBDE884
:102690001040FFF74DBC000070B5FDF7A3FD0646E6
:1026A0001348046894F8340000F00F00012819D191
:1026B000D4E90501884215D004F114000546FFF75E
:1026C00036FA94F835000B4901EBC00041680D6003
:1026D00041686960456028603046FDF787FDFFF777
:1026E00027FC02E03046FDF781FD002070BD0000B0
:1026F000940000201C03002001480068704700007F
:1027000020000020094810B50168491C0160FFF74E
:1027100055FF016C491E016403D1C16B0164FFF7D1
:10272000BBFFBDE8104000F003B80000200000200F
:102730002DE9FC41CDF804D0CDF800D0FFF7DCFF47
:102740000646FDF74FFD07461B4D2DE060696FF013
:102750000041301A143C884229D22046FEF7D0FDB1
:10276000607A810702D420F00100607204F1140144
:1027700088466846FFF7C4F9D4E907108847FFF791
:10278000BBFF06460098694688420DD04046FFF7D9
:10279000D7F9607A810707D5C10705D020F001007D
:1027A0006072204600F056F82C68AC42CED1384614
:1027B000FDF71CFDBDE8FC81A800002070B51546A2
:1027C0000E460446FDF70EFD052E17D2DFE806F093
:1027D0000503080C1100616A0FE0296861620DE0D1
:1027E000617A21F0020102E0617A41F00201617236
:1027F00004E0617AC90700D001212960FDF7F6FCE9
:10280000002070BD70B50446FDF7ECFC054620467F
:10281000FEF776FD607A20F0010060722846FDF731
:10282000E5FC2046FFF731FB002070BD2DE9F843A1
:102830009046DDE908450A461F4606460A21FFF78D
:1028400047FB23463A46414630460095FEF74AFD8F
:10285000BDE8F8832DE9F8430446FDF7C3FC804644
:102860002046FEF74DFD607A20F001006072FFF710
:1028700043FF616A174A4318A3620020009202EBEB
:10288000C002694656686FF000475DF820200AE0F4
:102890001268A2EBC0056D699D4202D0ED1ABD42DF
:1028A00003D341F82020B242F2D10A48001F016848
:1028B000491C016004F114010098FFF721F9607AC6
:1028C00040F0010060724046FDF790FC0020BDE83A
:1028D000F8830000A800002070B50446407AC007C5
:1028E0000ED0FDF77FFC05462046FEF709FD607A15
:1028F00020F0010060722846FDF778FC002070BDD2
:102900004FF0FF3070BD00002DE9FF4F89460446AF
:1029100000EB090783B080464FF0FF3A4FF0200BE1
:10292000A74202D25746C8F1FF390BE1252803D050
:10293000BC4200D2207080E000260599491C059118
:1029400008782D2811D02B2812D0202813D0232826
:1029500014D0302815D00A785546303A0A2A13D2B6
:1029600005A800F04BF905461AE046F01006E4E72A
:1029700046F00406E1E746F00806DEE746F02006EA
:10298000DBE746F00106D8E72A2809D10698491C5A
:10299000059120C80690002D02DA6D4246F010061F
:1029A0000598D44601782E2918D1401C059001784D
:1029B000A1F130020A2A04D205A800F01FF98446CA
:1029C00007E02A2908D1401C0590069850F804CB4E
:1029D0000690BCF1000F01DA4FF0000C059A0020C0
:1029E0001178682901D06C2902D1521C0846059241
:1029F00011780A236F2974D00CDC63291FD004DC02
:102A000025296FD058290DD184E0642901D0692986
:102A100008D183E0702966D073292CD075297FD026
:102A2000782979D0BC4201D2252020700598641CF9
:102A30000178E9B3BC4200D22170641C7FE0F0064B
:102A400008D458466D1E002D04DDBC4200D2207013
:102A5000641CF7E70698BC4210F8041B069000D2ED
:102A60002170584602E0BC4200D22070641C6D1EEA
:102A7000002DF8DC63E0069802C8069001B941A178
:102A8000002000E0401CA84202D00A5C002AF9D1D4
:102A9000BCF1000F02DD604500DD6046F2060BD49C
:102AA0005A462B466D1E834206DDBC4202D200E030
:102AB00054E02270641CF4E7002206E0BC4201D21C
:102AC0000B782370491C521C641C8242F6DB5A4668
:102AD00029466D1E814232DDBC4200D22270641C48
:102AE000F6E715E010E0681C02D1082546F0010663
:102AF000CDE9005C06980296102304C8069039467A
:102B0000204619E00CE007E0BC4296D2252011E7F0
:102B1000082305E046F04006102301E046F00206D7
:102B20006C2801D068281CD0069804C80690CDE90E
:102B3000005C394620460296FEF78CFC0446059858
:102B4000401C05900598007800287FF4EFAEB9F19D
:102B5000000F11D0BC420DD220700DE0401E059038
:102B6000EDE7069830F8041B06908AB2B007DED570
:102B700012B2DCE707F8010C07B0A4EB0800BDE8CF
:102B8000F08F0000284E554C4C2900000020704763
:102B900000207047002070470020704710B5FDF7F7
:102BA00021FBFEF7DBFDFFF7A9FAFFF79FFBFFF71D
:102BB0006FFBFEF70DFDFFF79FFBFFF7ADFCFFF787
:102BC00081FB002010BD00000B4D4FF0FF362C465E
:102BD0003146E868FFF7C0F82078401C2070642078
:102BE000FFF7EAFB6078401C6070E868FFF762F866
:102BF000FFF752FDECE700000000002010B5014691
:102C000000206FF02F0307E0541C0C60127800EBDB
:102C1000800003EB400010440A681478303C0A2C12
:102C2000F2D310BD0B4810B5094901604FF4E131F2
:102C30004160002181600C22C160C0E90412816101
:102C4000C161FEF74DF8002800D0FEE710BD00007E
:102C5000001001401C4000200000000000000000A7
:102C60000102030406070809000000000102030432
:102C70000000010002000100030001000200010049
:102C80000400010002000100030001000200010035
:102C90000500010002000100030001000200010024
:102CA0000400010002000100030001000200010015
:102CB0000600010002000100030001000200010003
:102CC00004000100020001000300010002000100F5
:102CD00005000100020001000300010002000100E4
:102CE00004000100020001000300010002000100D5
:102CF00007000100020001000300010002000100C2
:102D000004000100020001000300010002000100B4
:102D100005000100020001000300010002000100A3
:102D20000400010002000100030001000200010094
:102D30000600010002000100030001000200010082
:102D40000400010002000100030001000200010074
:102D50000500010002000100030001000200010063
:102D60000400010002000100030001000200010054
:102D700030313233343536373839616263646566F1
:102D800000303132333435363738394142434445E7
:102D900046000000992B0008912B0008252C000804
:102DA0008D2B0008952B0008C82D0008000000207E
:102DB000C000000044120008882E0008C000002057
:102DC000A0430000541200080000000000000000B2
:102DD00000000000000000000024F40001000000DA
:102DE00010000000000000000000000000000000D3
:102DF00000000000000000000000000000000000D3
:102E0000000000000000000001000000440000205D
:102E10004400002078000000020000005400002060
:102E20005400002020000000030000006400002087
:102E30006400002024000000060000007400002050
:102E4000740000203C0000000A0000008400002004
:102E5000840000202C0000000000000000000000A2
:102E60000000000000000000000000000000000062
:102E70000000000000000000000000000000000052
:082E800000000000000000004A
:04000005080001AD41
:00000001FF
