:020000040800F2
:1000000050440020C10100083F0F0008C50200084D
:100010003D0F00080B040008E51100080000000077
:10002000000000000000000000000000D3010008F4
:100030000D0400080000000013020008410F000832
:10004000DB010008DB010008DB010008DB01000820
:10005000DB010008DB010008DB010008DB01000810
:10006000DB010008DB010008DB010008DB01000800
:10007000DB010008DB010008DB010008DB010008F0
:10008000DB010008DB010008DB010008DB010008E0
:10009000DB010008DB010008DB010008DB010008D0
:1000A000DB010008DB010008DB010008DB010008C0
:1000B000DB010008DB010008DB010008DB010008B0
:1000C000DB010008DB010008DB010008DB010008A0
:1000D000DB010008DB010008DB010008DB01000890
:1000E000DB010008DB010008DB010008DB01000880
:1000F000DB010008DB010008DB010008DB01000870
:10010000DB010008DB010008DB010008DB0100085F
:10011000DB010008DB010008DB010008DB0100084F
:10012000DB010008DB010008DB010008DB0100083F
:10013000DB010008DB010008DB010008DB0100082F
:10014000DB010008DB010008DB010008DB0100081F
:10015000DB010008DB010008DB010008DB0100080F
:10016000DB010008DB010008DB010008DB010008FF
:10017000DB010008DB010008DB01000800000000D3
:10018000DB010008DB010008DB010008DB010008DF
:10019000DB010008DB010008DB010008DB010008CF
:1001A000DB010008DB010008DB010008DFF80CD0F0
:1001B00000F014F9004800470104000850440020F2
:1001C0000648804706480047FEE7FEE7FEE7FEE7F1
:1001D000FEE7FEE7FEE7FEE7FEE7FEE75110000858
:1001E000AD010008EFF3108072B6704780F31088FD
:1001F0007047424A1368012B04D04FF0010313608B
:100200003F4A10603F4A11603F484FF08051016003
:100210007047EFF3108272B63848016851B34FF05F
:10022000000101603648016891B1EFF309811EF0C9
:10023000100F08BF21ED108B21E9F00F4FF00004E3
:100240001EF0100F08BF012441F8044D0068016042
:100250002C490968096808C9B1E8F00F002B18BFDC
:10026000B1EC108B81F309884EF0100E002B18BFF3
:100270002EF0100E82F310884EF0040E70472149C4
:100280000860EFF3148222F0040282F314881C4900
:100290004FF00000086019494FF0010008601B484A
:1002A0001B49D0F8002041EA0201016016484FF0D6
:1002B0008051016017480068006880F3088861B6C3
:1002C00062B670471EF0040F0CBFEFF30880EFF327
:1002D000098020E9F00F40F804ED40F804ED1EF02D
:1002E000040F0CBF80F3088880F3098800B501F083
:1002F00089FA5DF804EB4EF0040E7047A800002068
:10030000A0000020A400002004ED00E020ED00E0AB
:100310000000FFFF08ED00E02DE9F05F054600203A
:1003200092469B4688460646814640241BE0284666
:1003300041464746224600F041F853465A46C01A05
:10034000914110D311461846224600F028F82D1A84
:1003500067EB01084F4622460120002100F01FF8FC
:1003600017EB00094E41201EA4F10104DFDC4846D2
:1003700031462A464346BDE8F09FD2B201E000F87C
:10038000012B491EFBD270470022F6E710B5134639
:100390000A4604461946FFF7F0FF204610BD202A02
:1003A00004DB203A00FA02F1002070479140C2F1CC
:1003B000200320FA03F3194390407047202A04DBFE
:1003C000203A21FA02F00021704721FA02F3D040CE
:1003D000C2F120029140084319467047064C074D70
:1003E00006E0E06840F0010394E807009847103405
:1003F000AC42F6D3FFF7DEFE7C2B00089C2B0008F6
:1004000010B502F099FA002010BDFEE7704772B6F1
:10041000FEE700002DE9F84FDFF8F8A100220124E3
:100420000AF1040B03254FF00F090BF1040E00BF76
:100430000B6804FA02F63340B34270D10F7907F02B
:100440000307012F01D0022F16D187684FEA420817
:1004500005FA08FC27EA0C07D1F80CC00CFA08FCD6
:100460004CEA070CC0F808C04768B7430E79C6F3DA
:10047000001696403E4346600E79F643B6070AD012
:10048000C7684FEA420C05FA0CF6B7438E6806FAC5
:100490000CF63E43C6600E7906F00306022E10D11C
:1004A000D60800EB8608D8F8206057074FEAD76CCB
:1004B00009FA0CF7BE430F6907FA0CF73743C8F87F
:1004C000207006684FEA420C05FA0CF7BE430F791C
:1004D00007F0030707FA0CF7374307604E6816F476
:1004E000403F1CD04C4E376847F480473760366831
:1004F00022F0030706F480460096484E07EB060CF0
:10050000DCF8086897073F0F09FA07F826EA08069B
:10051000DFF80C81404503D14FF0000841E072E064
:10052000DFF80081404502D14FF0010839E0DFF8E3
:10053000F880404502D14FF0020832E0DFF8EC804D
:10054000404502D14FF003082BE0DFF8E48040453E
:1005500002D14FF0040824E0DFF8D880404502D1F2
:100560004FF005081DE0DFF8D080404502D14FF084
:10057000060816E0DFF8C480404502D14FF00708B6
:100580000FE0DFF8BC80404502D14FF0080808E0DA
:10059000DFF8B080404502D14FF0090801E04FF08C
:1005A0000A0808FA07F848EA0608CCF80888DAF8D2
:1005B00000605746D1F804C09E435FEACC3C00D5AA
:1005C0001E433E60DBF800605F46D1F804C09E43E6
:1005D0005FEA8C3C00D51E433E60DEF80060774643
:1005E000D1F804C09E435FEACC2C00D51E433E6088
:1005F000084F0C373E68D1F804C09E435FEA8C2C4C
:1006000000D51E433E60521C102AFFF411AFBDE816
:10061000F88F0000003C01404438024000300140A7
:10062000000002400004024000080240000C0240AA
:10063000001002400014024000180240001C02405A
:1006400000200240002402400069084000D0012040
:1006500070470AB1816170470904FBE7014880686F
:1006600070470000100000200B4810B5016841F4ED
:1006700000710160016841F480610160016841F42A
:1006800080710160032000F061F8002000F006F89E
:1006900000F024F8002010BD003C024070B50D4D64
:1006A00004464FF47A712878B1FBF0F00A490968E2
:1006B000B1FBF0F000F004FB48B9102C07D2002287
:1006C0002146501E00F022F800206C6070BD012011
:1006D00070BD0000100000200C0000200A4808B582
:1006E000016841F480410160006800F4804000909E
:1006F0000548001F016841F080510160006800F06A
:100700008050009008BD000044380240F0B40E4B09
:100710001B680C46C3F30223C3F10705042D00D95F
:100720000425191D072901D2002300E0DB1E012644
:1007300006FA05F1491E214099409E40761E16405A
:100740003143F0BC00F04FBD0CED00E0064900F075
:10075000070208684FF6FF03184040EA0220034AE8
:1007600010430860704700000CED00E00000FA053F
:100770002DE9F0470E46050065D0DFF81481D8F862
:100780000000F7B200F00F00B04207D288F8007006
:10079000D8F8000000F00F00B04254D128683D4C5A
:1007A000810712D5400703D5206840F4E05020604F
:1007B0002878000703D5206840F460402060206856
:1007C000A96820F0F000084320602878C0072DD0E9
:1007D000304968680839012812D0022813D003284C
:1007E00011D00968890700292DDA216821F0030159
:1007F00001432160FFF732FF814641F2883A0EE063
:1008000009688903EFE709688901ECE7FFF726FF2C
:10081000A0EB0901514502D90320BDE8F08720680B
:10082000696800F00C00B0EB810FEFD1D8F8001030
:10083000404601F00F01B14207D90770006800F08F
:100840000F00B04201D00120E7E72878400705D526
:100850002068E96820F4E050084320602878000709
:1008600006D52068296920F4604040EAC100206074
:1008700000F03EF82168084AC1F30311515CC840FA
:100880000649086006480068FFF708FF0020C4E733
:10089000003C0240083802402C2A00080C000020CE
:1008A0001400002001480068704700000C00002080
:1008B0000448054900680968044AC1F38221515C73
:1008C000C84070470C000020083802403C2A00084D
:1008D0000448054900680968044AC1F34231515C83
:1008E000C84070470C000020083802403C2A00082D
:1008F000154810B5006810F00C02144813D01449C4
:10090000042A0FD0082A0ED10F4C241F2268236816
:1009100002F03F025B0207D52068C0F38810A0FBFD
:10092000010106E0084610BD2168C1F38811A1FB52
:1009300000010023FFF7F0FC2168C1F30141491CCD
:100940004900B0FBF1F010BD083802400024F4006B
:1009500040787D012DE9F84F04006ED02078DFF853
:100960004C93C007A9F104054AD009F104000168BD
:10097000C1F38101012908D00068C0F38100022879
:100980000AD1D9F80000400206D52868800337D57F
:1009900060680028E1D033E06068B0F5803F10D097
:1009A000B0F5A02F286810D020F480302860286887
:1009B00020F4802028606068A8B1FFF74FFE06464B
:1009C0000DE0286840F48030F4E740F4802028608F
:1009D000F7E700BFFFF742FE801B642873D8286842
:1009E0008003F7D50CE0FFF739FE064605E000BFAF
:1009F000FFF734FE801B6428F0D828688003F7D402
:100A00002078DFF8AC8280074FF0000A3ED5A74877
:100A1000001D016811F00C0F08D00068C0F38100C0
:100A200002280BD1D9F80000400207D428688007BB
:100A300016D5E068012800D112E033E1E068B8B1D2
:100A40000120C8F80000FFF709FE064605E000BFD8
:100A5000FFF704FE801B0228C0D828688007F7D55E
:100A60002868216920F0F80040EAC10028600DE004
:100A7000C8F800A0FFF7F2FD064604E0FFF7EEFD20
:100A8000801B02281FD828688007F7D42078000729
:100A900022D5864F87486169703771B101210160A5
:100AA000FFF7DCFD064604E0FFF7D8FD801B0228B7
:100AB00009D838688007F7D50EE0C0F800A0FFF726
:100AC000CDFD064605E082E0FFF7C8FD801B022849
:100AD0007DD838688007F7D42078400768D5DFF8DC
:100AE000CCB100270BF13C0BDBF80000C0000BD4AD
:100AF000DBF8001041F08051CBF80010DBF800006B
:100B0000012700F0805000906B4E3068C00510D473
:100B1000306840F480703060FFF7A0FD009005E081
:100B2000FFF79CFD0099401A022850D83068C00594
:100B3000F6D55E4EA0686C3601280FD005283068C7
:100B400010D020F001003060306820F004003060E8
:100B5000A068B8B1FFF782FD00900FE0306840F068
:100B60000100F4E740F004003060F7E7FFF776FD9E
:100B70000099411A41F28830814266D83068800776
:100B8000F4D50EE0FFF76AFD009007E0FFF766FD81
:100B90000099411A41F28830814256D83068800766
:100BA000F4D42FB1DBF8001021F08051CBF8001005
:100BB000A069C8B33D49091D0968C1F38101022933
:100BC0004AD00228504607D0C8F8600000E03CE058
:100BD000FFF744FD04463BE04746C8F86000FFF7D6
:100BE0003DFD064605E000BFFFF738FD801B0228EB
:100BF0002BD828688001F7D4D4E907010843A16AFB
:100C00002E4A490802EB0141626A41EA8211084317
:100C100094F82C1040EA0161C9F8001001203866F0
:100C2000FFF71CFD044606E03EE000BFFFF716FD9F
:100C3000001B022809D828688001F7D534E000BFDE
:100C4000FFF70CFD001B022802D90320BDE8F88F36
:100C500028688001F4D427E00128F7D0D9F80000F3
:100C6000E26900F4800191421CD1226A00F03F0148
:100C7000914217D147F6C071626A0140B1EB821F01
:100C800010D1A26A4FF0FF3300F4403103EB52025F
:100C9000B1EB024F06D194F82C1000F07060B0EB6D
:100CA000016F01D00120D1E70020CFE704380240D6
:100CB00000004742800E4742007000400000FFFFE6
:100CC00010B5401EB0F1807F01D3012010BD4FF060
:100CD000E02460610F21601700F085FA0020A06118
:100CE00007202061002010BD70B5040004D094F8E6
:100CF0003D00002510B106E0012070BD84F83C5095
:100D0000204600F023F8242084F83D002068C168C4
:100D100021F40051C160204600F0A2F92068016969
:100D200021F4904101612068416921F02A0141616B
:100D30002068C16841F40051C1602564202084F816
:100D40003D0084F83E00002070BD000010B586B064
:100D5000044614216846FFF717FB144920688842AF
:100D600021D113480021026842F01002026000689D
:100D700000F0100005900E481438026842F001029D
:100D80000260006800F0010005904FF4C060009020
:100D90000220CDE901010320039007200490694659
:100DA0000448FFF737FB06B010BD000000100140FB
:100DB00044380240000002402DE9F843044690F810
:100DC0003D001F4616460D4620284CD1C5B1BEB188
:100DD00094F83C00012846D0012084F83C004FF0F4
:100DE0000008C4F84080212084F83D00FFF736FC5D
:100DF000A6848146E684A068B0F5805F03D004E055
:100E00000120BDE8F883206928B12E465FF0000577
:100E100084F83C800EE00026FAE78021204600F0AE
:100E2000A5F9A0B9AEB116F8010B21684860E08CB5
:100E3000401EE084E08C4B464FF0000200970028F3
:100E4000EBD14FF04001204600F090F930B1032083
:100E5000D7E735F8020BC0F30800E6E7202084F856
:100E60003D000020CDE70220CBE70000F0B587B0C1
:100E700014216846FFF788FA1E480024016841F0F3
:100E800004010160016801F004010591016841F06D
:100E900001010160016801F001010591016841F063
:100EA000800101600068144F00F080004FF4E056AC
:100EB0000590012231463846FFF7CBFB4FF4005036
:100EC000CDE9000469460D480294FFF7A3FA012515
:100ED000CDE9005469460A480294FFF79BFA009650
:100EE000CDE90154694638460394FFF793FA07B0F9
:100EF000F0BD000030380240001C024000080240F3
:100F0000000002400C4810B50A4901604FF4E1317D
:100F10004160002181600C22C160C0E9041281613E
:100F2000C161FFF7E1FE002803D0BDE81040FFF7E4
:100F30006EBA10BD00100140AC000020FEE7FEE7D5
:100F400010B500F085FD01F0ABFABDE8104000F0EF
:100F50008DBD000010B592B030216846FFF714FA3D
:100F600014210CA8FFF710FA18480024016841F07A
:100F700080510160006800F08050119014480168B1
:100F800021F4404141F4804101600068069400F47E
:100F90004040119002200090012003901020049006
:100FA0006846FFF7D7FC08B172B6FEE70F20CDE91F
:100FB0000C040E940F9400210CA81094FFF7D8FB9A
:100FC000002801D072B6FEE712B010BD40380240D2
:100FD0000070004070B5194C2068194A10F00C01DF
:100FE000184804D0184D042903D0082903D0026002
:100FF0001BE0056019E01149091F0B68C3F3805617
:101000000B6803F03F0316B1B5FBF3F201E0B2FB4E
:10101000F3F20B680968C3F388135A43C1F3014123
:10102000491C4900B2FBF1F101602168074AC1F394
:101030000311515C0268CA40026070BD083802406A
:101040000024F4000C00002040787D012C2A0008C8
:101050000248016841F470010160704788ED00E0CA
:1010600070B5044600680169E26821F440511143FB
:1010700001612169A068E26908436169114308437D
:101080002168CA6849F20C639A430243CA60206827
:101090004169A26921F440711143416131492068DD
:1010A000884202D03049884202D1FFF711FC01E0AA
:1010B000FFF7FEFBE2690023192164253226B2F511
:1010C000004F626828D0A0FB0101930F9200FFF748
:1010D00023F90146B0FBF5F06FF01802504301EB25
:1010E000800006EB0010B0FBF5F000F0F002B1FB61
:1010F000F5F002EB0012B1FBF5F06FF01803584366
:1011000001EB800006EB0010B0FBF5F000F00F00E3
:1011100021681044886070BDA0FB010192185B41FA
:10112000FFF7FAF80146B0FBF5F00201B1FBF5F06C
:101130006FF01803584301EB800006EBC000B0FBD2
:10114000F5F000F0F80002EB4002B1FBF5F0584377
:1011500001EB800006EBC000B0FBF5F000F00700EB
:10116000D6E7000000100140001401402DE9F041D5
:10117000984617460E460446069D27E0681C25D073
:101180002DB1FFF76BFAA0EB0800A8421ED920682A
:101190000C3050E8001F21F4D07140E80012002A02
:1011A000F5D12068143050E8001F21F0010140E81B
:1011B0000012002AF5D1202084F83D0084F83E007A
:1011C000002084F83C000320BDE8F081206800681E
:1011D00036EA000004D00020B842CFD00020F3E768
:1011E0000120F9E7FEE70907090E002804DB00F1FA
:1011F000E02080F80014704700F00F0000F1E020BC
:1012000080F8141D70470000002807D00E4910F028
:10121000FF0F04D051FA80F00078401C704710F4A2
:101220007F4F04D0C0F30720085C0930704710F4EA
:101230007F0F04D0C0F30740085C1130704701EB0A
:101240001060007819307047442A000802E008C88E
:10125000121F08C1002AFAD170477047002001E030
:1012600001C1121F002AFBD1704700002DE9FC418B
:101270001F460446DDE90831DDE90A6514304060A7
:101280000060C4E90827C4E90A310A462321184648
:101290001C3400F0EBFCD4E903014218D4E901014D
:1012A000104B121F00F0B6FB44F81A0B002004F894
:1012B00001690D4A04F8036BE4E8020544F810598B
:1012C00001C404F83C0B01C444F87409009023469F
:1012D0000190194604F1440001F076F90020BDE8C0
:1012E000FC810000052200081324000810B5029CB0
:1012F00024F001044472C0E907120021C0E9093159
:1013000014304060006010BD143000F02DBC70B58A
:101310000546FEF767FF296F044609B1284688474E
:101320002046BDE87040FEF761BF00002DE9FC419A
:10133000FFF79AF9FFF70EFEFFF798FDFFF7E2FDC2
:1013400019A000F0D3FB00F037FE002205211CA0FD
:1013500000F0B4FD1D4CA06010B11DA000F0C6FB54
:1013600014250320CDE900054FF400763346002212
:101370001C491DA000F01FFF4FF0FF37206088B10F
:1013800001F010F80420CDE9000533460022184989
:1013900018A000F010FF606020B101F003F80020F9
:1013A000BDE8FC813846FBE752542D5468726561F4
:1013B00064CAB5D1E92DD0C5BAC5C1BF00000000CF
:1013C000746573745F73656D000000000000002099
:1013D000D0C5BAC5C1BFB4B4BDA8B3C9B9A6A3A18D
:1013E0000A0A000091150008726563656976650058
:1013F0006529000873656E640000000010B500F0F8
:101400001FF9BDE81040FFF791BF000030B5134948
:1014100043680A68134402F1080498420DD05D88BD
:101420005DB94D68AB4208D08D689D4200D188609F
:101430005D6845605B68851A1D518368134483426B
:101440000BD05D88002D08D18D68854200D18B605E
:10145000416859604068991A015130BD240000204C
:101460002DE9F04F85B09946DDE90EA5109CAB46FD
:10147000630602D5DFF814C103E0DFF810C1ACF158
:10148000110CE30601D524F00104E30701D0302359
:1014900000E0202300260493A3070BD5002A02DADC
:1014A0002D26524206E0630701D52B2602E02307D2
:1014B00000D520260023EE4622B930228DF80020E8
:1014C00001230CE0B9F10A0F14D002F00F08120941
:1014D0001CF808800EF803805B1C002AF2D1AB4296
:1014E00000DD1D46AAEB050214F0110F4FF0200796
:1014F00008D015E00A27B2FBF7F807FB1828B2FB63
:10150000F7F2E5E73EB1002A05DD521E03E088420E
:1015100000D20770401CB2F1000CA2F10102F6DC0F
:1015200026B1884200D20670401C521EE40605D542
:1015300008E0884201D2049C0470401C141EA2F1F1
:101540000102F6DC30242E466D1E9E420ADD8842E2
:1015500000D20470401CF6E7884201D2E55C0570B9
:10156000401C00E074461D1EA3F1010307DDBBF122
:10157000000FF1D103E0884200D20770401C131E17
:10158000A2F10102F7DC05B0BDE8F08F552B000891
:101590000A4D0B4C01212846FFF756F840B10021B7
:1015A000A06800F0D1FC38B106A000BF00F09EFAA0
:1015B000142000F024FEEDE708A0F7E70000024049
:1015C000000000204B455931B0B4CFC22CCDA3B39D
:1015D000B5B3A1D2D1C2FA2E0D0A00004B45593144
:1015E000B0B4CFC22CB3C9B9A6C9EAC7EBB5BDB375
:1015F000B5CEBB2E0D0A00001CB514210A20CDE982
:1016000000014FF480630022034904A000F0D3FDE1
:10161000BDE81C4000F0C6BEFD1300086D61696E98
:101620000000000070B5044C044D02E020688047C3
:10163000241DAC42FAD370BD6C2B0008742B00083B
:1016400070B5044C044D02E020688047241DAC4274
:10165000FAD370BD742B0008782B000810B5FEF784
:10166000C1FD044A5188491C5180BDE81040FEF775
:10167000BDBD00007C00002010B5FEF7B3FD0B4C93
:101680006188491E09B2618000290ADC002161805D
:10169000FEF7ACFD6068002807D0BDE8104000F000
:1016A00095BBBDE81040FEF7A1BD10BD7C00002039
:1016B00070B5002833D01A4D296888422FD3696845
:1016C00088422CD2A0F10C044FF0FF31154800F0F5
:1016D0003BFC60884FF4F55610B12088B04208D02A
:1016E00011A000F003FA23886288214615A000F0BB
:1016F000FDF9002060802680A868844200D2AC609A
:1017000029686068611A401A2969081A2861204608
:10171000FFF77CFEBDE87040024800F0F1BB70BDF1
:1017200024000020E8020020746F206672656520A6
:101730006120626164206461746120626C6F636B1C
:101740003A0A00006D656D3A203078253038782CE3
:10175000207573656420666C61673A2025642C20CF
:101760006D6167696320636F64653A203078253066
:1017700034780A0000487047080400200048704789
:101780000840002010B5FEF76FFFFFF7E3FBFFF7FF
:1017900021FCFFF787F84FF47A71B0FBF1F0FFF707
:1017A0008FFAFFF73FFFFFF7E9FF0446FFF7E2FF7D
:1017B0002146BDE8104000F073BC0000F8B50646B5
:1017C0000D200F498DF80000002481F83C40304680
:1017D00000F04AFC05460FE0305D0A2805D10123E0
:1017E0001A4669460648FFF7E7FA012331191A46F7
:1017F0000348FFF7E1FA641CAC42EDD3F8BD0000EA
:101800000840002070B52F490546283009682C1D76
:1018100011B18847002853D02BA0216C00F066F945
:101820002DA0616A00F062F92FA0A16A00F05EF9B4
:1018300031A0E16A00F05AF933A0216B00F056F9AB
:1018400035A0616800F052F937A0A16800F04EF9A8
:1018500039A0E16800F04AF93BA0216900F046F99F
:101860003DA0616900F042F93FA0A16900F03EF996
:1018700041A0E16900F03AF943A0216A00F036F98D
:1018800045A0616B00F032F947A0A16B00F02EF982
:1018900049A0E16B00F02AF92878400706D500F04E
:1018A0005BFD014648A000F021F902E04EA000F0E7
:1018B0001DF92878C00602D452A000F017F9FEE7FF
:1018C00070BD00009C0000207073723A20307825B3
:1018D0003038780A000000007230303A2030782525
:1018E0003038780A000000007230313A2030782514
:1018F0003038780A000000007230323A2030782503
:101900003038780A000000007230333A20307825F1
:101910003038780A000000007230343A20307825E0
:101920003038780A000000007230353A20307825CF
:101930003038780A000000007230363A20307825BE
:101940003038780A000000007230373A20307825AD
:101950003038780A000000007230383A203078259C
:101960003038780A000000007230393A203078258B
:101970003038780A000000007231303A2030782583
:101980003038780A000000007231313A2030782572
:101990003038780A000000007231323A2030782561
:1019A0003038780A00000000206C723A2030782528
:1019B0003038780A000000002070633A2030782523
:1019C0003038780A00000000686172642066617532
:1019D0006C74206F6E207468726561643A202573A0
:1019E0000D0A0D0A000000006861726420666175CE
:1019F0006C74206F6E2068616E646C65720D0A0DE8
:101A00000A00000046505520616374697665210D17
:101A10000A00000070B50446121D22F007000022E3
:101A20000A4D443840F82250521C112AFAD3416220
:101A300000218162C16200F13402016382E81A0070
:101A40004FF080730364016070BD0000EFBEADDE37
:101A500010B5FEF7C7FB044A1178491C1170BDE8A8
:101A60001040FEF7C3BB00002000002010B5FEF7B9
:101A7000B9FB044A1178491E1170BDE81040FEF709
:101A8000B5BB00002000002010B50068143800F03D
:101A900045FC002010BD00002DE9F041064614462B
:101AA0000D46084600F094FC05F11407B4B1012C72
:101AB00018D134680EE000BF95F8351094F8212055
:101AC000A4F11400914204D23946143000F033F8E6
:101AD00002E02468B442EFD1B44203D13946304623
:101AE00000F029F80020BDE8F08100000FB47F214C
:101AF00010B503AB0448029A00F0D4FD0248FFF78A
:101B00005DFE10BC5DF814FB6802002002685160A5
:101B100002680A60016048607047026851600268AC
:101B20000A600160486070470268516002680A609C
:101B30000160486070474268116042684A604160D5
:101B400008607047D0E900124A60D0E900121160C5
:101B5000406000607047D0E900124A60D0E900128E
:101B60001160406000607047D0E900124A60D0E91F
:101B70000012116040600060704700002DE9F047DE
:101B8000002807D0374CC01C20F00306E0688642CE
:101B900002D90020BDE8F0870C2E00D20C264FF0B1
:101BA000FF31314800F0D0F9D4F808C02168E76867
:101BB000ACEB0100BA1B4FE00D186B88E3BB6B6800
:101BC0001B1A0C3BB34246D36A6806F11803121A7B
:101BD0000C3A4FF001094FF4F55A9A422DD383196C
:101BE0000C33CA184FF00008A2F800A0A2F8028037
:101BF000D5F80480C2E901806B60A5F802905068B6
:101C00000C37B84202D001F10802835020693044F9
:101C10000C3020616269824200D26061A5F800A0A8
:101C2000654512D1A06842887AB1626890420CD0B2
:101C300040680844A060F6E70DE0A5F802906868E7
:101C40006A1A801A22691044E3E7074800F058F93D
:101C500005F10C009EE768688242ADD8024800F0AA
:101C60004FF996E724000020E802002010B5034653
:101C7000CCB2042A1AD3810718D1194644EA0423A6
:101C800043EA034306E008C1103A08C141F8083BA3
:101C900041F8043C102AF6D201E008C1121F042AC0
:101CA000FBD20B4602E000BF03F8014B521EFBD2F1
:101CB00010BD2DE9F0410F46064600F045F80546F7
:101CC000C068FFF75BFF040019D00021EA68FFF746
:101CD000CDFF26720020607208223946204600F0AF
:101CE000CBF9FEF77FFA064604F10C01281DFFF739
:101CF0000DFF3046FEF77AFA2046BDE8F08100205D
:101D0000FBE770B5044600202072FEF76BFA05462B
:101D100004F10C00FFF716FF2846FEF767FA20468D
:101D2000BDE87040FFF7C4BC70B5044600202072C7
:101D3000FEF758FA054604F10C00FFF703FF2846AA
:101D4000BDE87040FEF752BA074A002102EB0113CA
:101D50001B78834202D102EB01107047491C042911
:101D6000F4DB0020704700003C0000202DE9F0412A
:101D7000044616460D460846FFF7E6FF0746FFF7FE
:101D80006DFC381D796800E009688142FCD1FFF7DD
:101D900073FC45F08000207208223146204600F096
:101DA0006BF9FEF71FFA054604F10C01381DFFF729
:101DB000ADFE2846BDE8F041FEF718BA007A0006ED
:101DC00001D50120704700207047000070B5FEF774
:101DD00009FA114C05466088B0B9A068FFF714FAFB
:101DE0000E49401E626851F83010143991420BD0F0
:101DF00020700B486160007801F11C01002802F19D
:101E00001C0006D0FEF7F5F92846BDE87040FEF745
:101E1000EDB9FEF7EEF9F7E77C000020080300209B
:101E20002000002010B50446FEF7DCF9024694F8C5
:101E300034000E4920F00F00401C84F8340094F860
:101E4000350001EBC00104F114004B6818604B68C9
:101E5000A361486006486161A16B83681943816092
:101E6000BDE810401046FEF7C1B90000080300208D
:101E70007C00002010B50446FEF7B4F904F114010B
:101E8000D1E900235360D1E900231A60A1616161A7
:101E900094F83520074951F8323001EBC2018B42EA
:101EA00004D10549A36B8A689A438A60BDE8104053
:101EB000FEF79CB9080300207C00002070B50C469A
:101EC000014615460220FFF7F4FE002805D000F178
:101ED0001401816141618483457270BD2DE9F04137
:101EE00016460A461F4605460221FFF73FFF05F149
:101EF0001404AC616C61AE836F720020BDE8F081A8
:101F000070B50446FEF76EF90546616904F11400E8
:101F1000814207D0FFF7B8FD2846FEF767F9FFF7C3
:101F200055FF09E0A08B4FF6FF71884206D2401C96
:101F3000A0832846FEF75AF9002070BD2846FEF718
:101F400055F96FF0020070BD73B50546FEF74AF90A
:101F50000646A88B28B1401EA8833046FEF746F9F6
:101F600021E0019808B300F0F7F90446002020634F
:101F70006A7A214605F11400FFF78EFD01980028CA
:101F800009DD04F1440001AA0021054600F0E4FA4D
:101F9000284600F02DFB3046FEF728F9FFF716FF24
:101FA000206B002800D100207CBD3046FEF71EF9D2
:101FB0006FF001007CBD000008B509A0FFF796FD99
:101FC0000AA0FFF793FD12A0009005230122032130
:101FD00012A0FFF78BFDBDE8084018A0FFF786BDF3
:101FE0000A205C207C202F0A000000002D20525483
:101FF000202D2020202020546872656164204F70BD
:1020000065726174696E672053797374656D0A0037
:10201000417567203139203230323300202F207C47
:10202000205C202020202025642E25642E2564207D
:102030006275696C642025730A000000203230301C
:1020400036202D203230323020436F70797269672C
:1020500068742062792072742D74687265616420DE
:102060007465616D0A000000014600E0491C0A78B1
:10207000002AFBD1081A704710B5002A07D0034682
:1020800011F8014B03F8014B2CB1521EF8D110BDD1
:1020900003F8011B00E00021521EF9D110BD000021
:1020A0000A46C11C10B522F0030321F00301182BCE
:1020B00020D9A3F118048C421CD3114C581A18389B
:1020C0002160E0604FF4F5520A8000230C30C1E932
:1020D00001034B804B68194461600A8001224A80E9
:1020E00048608860002307A10848FFF7F7FE2068D2
:1020F000A06010BD0146BDE8104005A0FFF7F6BC8A
:10210000240000206865617000000000E8020020E3
:102110006D656D20696E69742C206572726F722016
:10212000626567696E2061646472657373203078DC
:1021300025782C20616E6420656E64206164647271
:1021400065737320307825780A00000010B50A49BD
:1021500000230A4C4B80184604EBC002401C52601E
:1021600012602028F8DB1F20087003484B600C30F9
:102170008B604060006010BD7C00002008030020E0
:1021800010B5074CA068FFF73FF80649401E51F80C
:10219000300014386060BDE810401C30FEF76FB8A6
:1021A0007C00002008030020014840600060704768
:1021B0009400002070472DE9FF478946DDE90C7641
:1021C000824601461D4690460120FFF772FD041E1F
:1021D0000DD02846FFF7D2FC60B103968DE8A10030
:1021E00043464A4651462046FFF740F8204604B091
:1021F000BDE8F0872046FFF784FD0020F7E700F0F8
:10220000B1B8000070B514480468FDF7EBFF05464F
:102210002046FFF77CF82046FFF72CFE042084F8C8
:10222000340004F1440000F0BBF92046FFF7C6FD7E
:1022300001280CD004F114010848FFF76EFC00BF20
:10224000FFF7C4FD2846BDE87040FDF7CFBF20462C
:10225000FFF76AFDF4E700008000002088000020FE
:1022600000F002F8FCE700002DE97040FDF7BAFF2E
:1022700005460F480168814214D00168A1F1140499
:10228000D1E900024260D1E90002106049600960B2
:102290004869FFF70DFA2046FFF733FD2846FDF7A2
:1022A000A5FFE3E72846BDE87040FDF79FBF0000AB
:1022B000880000201FB5202308481F22D9008DE880
:1022C0000F000023064A07A1783800F00FF804B089
:1022D0000248BDE81040783800F064B8680100207A
:1022E000612200087469646C650000002DE9FF5FDD
:1022F00092460EAA0C4692E8E0010A4699468346A9
:102300000121FFF733FD8DE8E0014B46524621469F
:102310005846FEF7ABFF04B0BDE8F09F70B5044629
:1023200090F8340000F00F00022802D04FF0FF3088
:1023300070BDFDF757FF054604F11400FFF70BFCD5
:1023400004F1440000F096F92846FDF74FFF2046BF
:10235000FFF768FD002070BD01480068704700006D
:1023600080000020F1B5FDF73DFF05460C480468EC
:10237000204600F02DF804F144006A46002106468C
:1023800000F0EAF8304600F033F92846FDF72EFF5A
:10239000FFF71CFD206B801C00D120630020F8BDDE
:1023A0008000002010B590F83610012280F835101A
:1023B0008A400221826380F83410FFF7AFFF0348A0
:1023C000006808B1FFF702FD002010BD800000206A
:1023D00070B5044690F8340000F00F00012802D0D8
:1023E0004FF0FF3070BDFDF7FDFE05462046FFF7BC
:1023F00041FD94F8340020F00F00801C84F8340074
:1024000004F1440000F036F92846FDF7EFFE002005
:1024100070BD10B504466FF00100206304F1140094
:10242000FFF799FB2046FFF7FDFCBDE81040FFF7E2
:10243000CDBC000070B5FDF7D5FE06461348046814
:1024400094F8340000F00F00012819D1D4E90501F7
:10245000884215D004F114000546FFF77CFB94F880
:1024600035000B4901EBC00041680D6041686960AF
:10247000456028603046FDF7B9FEFFF7A7FC02E093
:102480003046FDF7B3FE002070BD00008000002044
:102490000803002001480068704700001C0000206D
:1024A000094810B50168491C0160FFF755FF016C30
:1024B000491E016403D1C16B0164FFF7BBFFBDE896
:1024C000104000F003B800001C0000202DE9FC4182
:1024D000CDF804D0CDF800D0FFF7DCFF0646FDF7BD
:1024E00081FE07461B4D2DE060696FF00041301AF8
:1024F000143C884229D22046FEF706FF607A810705
:1025000002D420F00100607204F11401884668468C
:10251000FFF70AFBD4E907108847FFF7BBFF064621
:102520000098694688420DD04046FFF71DFB607A4F
:10253000810707D5C10705D020F001006072204651
:1025400000F056F82C68AC42CED13846FDF74EFE6E
:10255000BDE8FC819400002070B515460E46044687
:10256000FDF740FE052E17D2DFE806F00503080C44
:102570001100616A0FE0296861620DE0617A21F063
:10258000020102E0617A41F00201617204E0617AC5
:10259000C90700D001212960FDF728FE002070BD89
:1025A00070B50446FDF71EFE05462046FEF7ACFE5C
:1025B000607A20F0010060722846FDF717FE204681
:1025C000FFF7B2FB002070BD2DE9F8439046DDE92E
:1025D00008450A461F4606460A21FFF7C7FB234661
:1025E0003A46414630460095FEF780FEBDE8F88346
:1025F0002DE9F8430446FDF7F5FD80462046FEF739
:1026000083FE607A20F001006072FFF743FF616A89
:10261000174A4318A3620020009202EBC0026946E9
:1026200056686FF000475DF820200AE01268A2EBC0
:10263000C0056D699D4202D0ED1ABD4203D341F839
:102640002020B242F2D10A48001F0168491C0160F3
:1026500004F114010098FFF767FA607A40F0010076
:1026600060724046FDF7C2FD0020BDE8F88300001F
:102670009400002070B50446407AC0070ED0FDF7E4
:10268000B1FD05462046FEF73FFE607A20F00100CE
:1026900060722846FDF7AAFD002070BD4FF0FF30A4
:1026A00070BD00002DE9FF4F8946044600EB090785
:1026B00083B080464FF0FF3A4FF0200BA74202D282
:1026C0005746C8F1FF390BE1252803D0BC4200D2A0
:1026D000207080E000260599491C059108782D2876
:1026E00011D02B2812D0202813D0232814D0302822
:1026F00015D00A785546303A0A2A13D205A800F0B8
:1027000067F905461AE046F01006E4E746F00406CD
:10271000E1E746F00806DEE746F02006DBE746F094
:102720000106D8E72A2809D10698491C059120C836
:102730000690002D02DA6D4246F010060598D44648
:1027400001782E2918D1401C05900178A1F13002A2
:102750000A2A04D205A800F03BF9844607E02A299A
:1027600008D1401C0590069850F804CB0690BCF1A7
:10277000000F01DA4FF0000C059A0020117868294B
:1027800001D06C2902D1521C0846059211780A2307
:102790006F2974D00CDC63291FD004DC25296FD08D
:1027A00058290DD184E0642901D0692908D183E03A
:1027B000702966D073292CD075297FD0782979D0DB
:1027C000BC4201D2252020700598641C0178E9B331
:1027D000BC4200D22170641C7FE0F00608D4584649
:1027E0006D1E002D04DDBC4200D22070641CF7E792
:1027F0000698BC4210F8041B069000D2217058467F
:1028000002E0BC4200D22070641C6D1E002DF8DC7A
:1028100063E0069802C8069001B941A1002000E0DB
:10282000401CA84202D00A5C002AF9D1BCF1000F7A
:1028300002DD604500DD6046F2060BD45A462B46A9
:102840006D1E834206DDBC4202D200E054E02270DD
:10285000641CF4E7002206E0BC4201D20B7823702E
:10286000491C521C641C8242F6DB5A4629466D1EE6
:10287000814232DDBC4200D22270641CF6E715E0D2
:1028800010E0681C02D1082546F00106CDE9005C85
:1028900006980296102304C806903946204619E08F
:1028A0000CE007E0BC4296D2252011E7082305E0A2
:1028B00046F04006102301E046F002066C2801D0E5
:1028C00068281CD0069804C80690CDE9005C3946FB
:1028D00020460296FEF7C4FD04460598401C05906C
:1028E0000598007800287FF4EFAEB9F1000F11D001
:1028F000BC420DD220700DE0401E0590EDE7069819
:1029000030F8041B06908AB2B007DED512B2DCE7BD
:1029100007F8010C07B0A4EB0800BDE8F08F000039
:10292000284E554C4C29000000207047002070476D
:10293000002070470020704710B5FDF753FCFEF7EC
:1029400021FFFFF739FBFFF72FFCFFF7FFFBFEF737
:1029500053FEFFF72FFCFFF7ADFCFFF711FC002043
:1029600010BD00000B4E0C4C4FF40055294630466C
:10297000FDF76AFE0128F9D1A068FFF7C1FA38B166
:1029800006A000BFFFF7B2F81420FFF738FCEDE710
:1029900008A0F7E700080240000000204B4559322C
:1029A000B0B4CFC22CCEDEB3B5CEBBCACDB7C52E28
:1029B0000D0A00004B455932B0B4CFC22CCACDB776
:1029C000C5D2BBB8F6CDA3B3B5CEBB2E0D0A000061
:1029D00010B5014600206FF02F0307E0541C0C6077
:1029E000127800EB800003EB400010440A68147872
:1029F000303C0A2CF2D310BD0B4810B509490160D8
:102A00004FF4E1314160002181600C22C160C0E9D6
:102A100004128161C161FEF767F9002800D0FEE76A
:102A200010BD000000100140084000200000000020
:102A3000000000000102030406070809000000006E
:102A40000102030400000100020001000300010074
:102A50000200010004000100020001000300010067
:102A60000200010005000100020001000300010056
:102A70000200010004000100020001000300010047
:102A80000200010006000100020001000300010035
:102A90000200010004000100020001000300010027
:102AA0000200010005000100020001000300010016
:102AB0000200010004000100020001000300010007
:102AC00002000100070001000200010003000100F4
:102AD00002000100040001000200010003000100E7
:102AE00002000100050001000200010003000100D6
:102AF00002000100040001000200010003000100C7
:102B000002000100060001000200010003000100B4
:102B100002000100040001000200010003000100A6
:102B20000200010005000100020001000300010095
:102B30000200010004000100020001000300010086
:102B400002000100303132333435363738396162B2
:102B50006364656600303132333435363738394195
:102B60004243444546000000352900082D2900084D
:102B7000F929000829290008312900089C2B0008A0
:102B800000000020AC0000004C120008482C000897
:102B9000AC000020A44300005C120008000000000C
:102BA00000000000000000000024F400010000000C
:102BB0001000000000000000000000000000000005
:102BC0000000000000000000000000000000000005
:102BD0000000000000000000010000004000002094
:102BE000400000207800000002000000500000209B
:102BF00050000020200000000600000060000020BF
:102C0000600000203C0000000A000000700000206E
:102C1000700000202C0000000000000000000000F8
:102C200000000000000000000000000000000000A4
:102C30000000000000000000000000000000000094
:082C400000000000000000008C
:04000005080001AD41
:00000001FF
